S01A000070757368627574746F6E2070726F6A6563742E7372656397
S11300000C942A000C9447000C9447000C9447006D
S11300100C9447000C9447000C9447000C94470040
S11300200C9447000C9447000C9447000C94470030
S11300300C9447000C9447000C9447000C94470020
S11300400C9447000C9447000C9447000C94470010
S11300500C94470011241FBECFE5D8E0DEBFCDBF0E
S113006010E0A0E6B0E0ECE1F5E002C005900D92EE
S1130070A036B107D9F710E0A0E6B0E001C01D92A8
S1130080A036B107E1F70E946D020C948C020C9427
S11300900000843409F471C0853448F4823499F141
S11300A0833408F04DC0813409F083C00FC0823618
S11300B051F1833620F4813609F07BC007C08336C2
S11300C009F43EC0843609F074C057C0413069F465
S11300D02AB381E090E0AC0102C0440F551F6A9539
S11300E0E2F7BA01622B6ABB08952AB381E090E07B
S11300F0AC0102C0440F551F6A95E2F7BA0160953E
S113010062236ABB0895413069F427B381E090E02B
S1130110AC0102C0440F551F6A95E2F7BA01622B85
S113012067BB089527B381E090E0AC0102C0440F9F
S1130130551F6A95E2F7BA016095622367BB08957B
S1130140413069F424B381E090E0AC0102C0440F73
S1130150551F6A95E2F7BA01622B64BB089524B374
S113016081E090E0AC0102C0440F551F6A95E2F7AC
S1130170BA016095622364BB0895413069F421B3E8
S113018081E090E0AC0102C0440F551F6A95E2F78C
S1130190BA01622B61BB089521B381E090E0AC0108
S11301A002C0440F551F6A95E2F7BA0160956223B5
S11301B061BB0895843409F471C0853448F48234F1
S11301C099F1833408F04DC0813409F083C00FC025
S11301D0823651F1833620F4813609F07BC007C0A2
S11301E0833609F43EC0843609F074C057C04130E8
S11301F069F42BB381E090E0AC0102C0440F551FB9
S11302006A95E2F7BA01622B6BBB08952BB381E0C8
S113021090E0AC0102C0440F551F6A95E2F7BA01A1
S1130220609562236BBB0895413069F428B381E083
S113023090E0AC0102C0440F551F6A95E2F7BA0181
S1130240622B68BB089528B381E090E0AC0102C042
S1130250440F551F6A95E2F7BA016095622368BBA3
S11302600895413069F425B381E090E0AC0102C007
S1130270440F551F6A95E2F7BA01622B65BB0895D6
S113028025B381E090E0AC0102C0440F551F6A958C
S1130290E2F7BA016095622365BB0895413069F4C1
S11302A022B381E090E0AC0102C0440F551F6A956F
S11302B0E2F7BA01622B62BB089522B381E090E0B9
S11302C0AC0102C0440F551F6A95E2F7BA0160956C
S11302D0622362BB08958434D9F0853438F48234BF
S11302E099F0833498F48134A1F40CC0823661F01F
S11302F0833618F4813669F405C0833639F08436C0
S113030041F406C089B3089586B3089583B308956C
S113031080B30895843409F43DC0853440F48234B4
S1130320F9F0833450F5813409F040C00CC08236B2
S1130330B9F0833618F48136C9F505C08336E9F07F
S11303408436A1F527C02BB381E090E0AC0102C054
S1130350440F551F6A95E2F7BA0162276BBB0895F3
S113036028B381E090E0AC0102C0440F551F6A95A8
S1130370E2F7BA01622768BB089525B381E090E0F3
S1130380AC0102C0440F551F6A95E2F7BA01622717
S113039065BB089522B381E090E0AC0102C0440F34
S11303A0551F6A95E2F7BA01622762BB0895843447
S11303B0D9F0853438F4823499F0833498F4813454
S11303C0A1F40CC0823661F0833618F4813669F4E6
S11303D005C0833639F0843641F406C06ABB0895FB
S11303E067BB089564BB089561BB08958434D9F054
S11303F0853438F4823499F0833498F48134A1F448
S11304000CC0823661F0833618F4813669F405C075
S1130410833639F0843641F406C06BBB089568BB5B
S1130420089565BB089562BB08958434D9F085347A
S113043038F4823499F0833498F48134A1F40CC0F4
S1130440823661F0833618F4813669F405C0833648
S113045039F0843641F406C019BA089586B3089574
S113046083B3089580B30895843409F1853438F44E
S11304708234A9F08334B8F48134E1F40CC08236B8
S113048071F0833618F48136A9F405C0833659F027
S1130490843681F40CC08BB380958BBB089588B3EC
S11304A0809588BB089585B3809585BB089582B3F4
S11304B0809582BB089541E00E944900089541E07F
S11304C00E94DA00089540E00E94DA0008950E9434
S11304D08A0108950E946B01089581E660E00E94FC
S11304E0850281E661E00E945B0281E660E00E9491
S11304F08902813029F481E661E00E945F02F5CF30
S113050081E661E00E946302F0CF40E00E9449006E
S10F051008950E946B010895F894FFCF39
S9030000FC
