:100000000C942A000C9447000C9447000C94470071
:100010000C9447000C9447000C9447000C94470044
:100020000C9447000C9447000C944B050C9447002B
:100030000C9447000C9447000C9447000C94470024
:100040000C9447000C9447000C9447000C94470014
:100050000C94470011241FBECFE5D8E0DEBFCDBF12
:1000600010E0A0E6B0E0E8EEFAE002C005900D92E4
:10007000A839B107D9F710E0A8E9B0E001C01D9296
:10008000AC39B107E1F70E94FD040C9472050C94A1
:100090000000843409F471C0853448F4823499F145
:1000A000833408F04DC0813409F083C00FC082361C
:1000B00051F1833620F4813609F07BC007C08336C6
:1000C00009F43EC0843609F074C057C0413069F469
:1000D0002AB381E090E0AC0102C0440F551F6A953D
:1000E000E2F7BA01622B6ABB08952AB381E090E07F
:1000F000AC0102C0440F551F6A95E2F7BA01609542
:1001000062236ABB0895413069F427B381E090E02F
:10011000AC0102C0440F551F6A95E2F7BA01622B89
:1001200067BB089527B381E090E0AC0102C0440FA3
:10013000551F6A95E2F7BA016095622367BB08957F
:10014000413069F424B381E090E0AC0102C0440F77
:10015000551F6A95E2F7BA01622B64BB089524B378
:1001600081E090E0AC0102C0440F551F6A95E2F7B0
:10017000BA016095622364BB0895413069F421B3EC
:1001800081E090E0AC0102C0440F551F6A95E2F790
:10019000BA01622B61BB089521B381E090E0AC010C
:1001A00002C0440F551F6A95E2F7BA0160956223B9
:1001B00061BB0895843409F471C0853448F48234F5
:1001C00099F1833408F04DC0813409F083C00FC029
:1001D000823651F1833620F4813609F07BC007C0A6
:1001E000833609F43EC0843609F074C057C04130EC
:1001F00069F42BB381E090E0AC0102C0440F551FBD
:100200006A95E2F7BA01622B6BBB08952BB381E0CC
:1002100090E0AC0102C0440F551F6A95E2F7BA01A5
:10022000609562236BBB0895413069F428B381E087
:1002300090E0AC0102C0440F551F6A95E2F7BA0185
:10024000622B68BB089528B381E090E0AC0102C046
:10025000440F551F6A95E2F7BA016095622368BBA7
:100260000895413069F425B381E090E0AC0102C00B
:10027000440F551F6A95E2F7BA01622B65BB0895DA
:1002800025B381E090E0AC0102C0440F551F6A9590
:10029000E2F7BA016095622365BB0895413069F4C5
:1002A00022B381E090E0AC0102C0440F551F6A9573
:1002B000E2F7BA01622B62BB089522B381E090E0BD
:1002C000AC0102C0440F551F6A95E2F7BA01609570
:1002D000622362BB0895843409F451C0853440F42C
:1002E000823439F18334C0F5813409F05AC00EC02C
:1002F0008236F9F0833620F4813609F052C006C008
:10030000833651F1843609F04CC039C029B381E0FD
:1003100090E0062E02C0880F991F0A94E2F730E0A1
:100320008223932302C0959587956A95E2F7982FCB
:1003300038C026B381E090E0062E02C0880F991FD6
:100340000A94E2F730E08223932302C095958795C3
:100350006A95E2F7982F25C023B381E090E0062E3E
:1003600002C0880F991F0A94E2F730E0822393239A
:1003700002C0959587956A95E2F7982F12C020B331
:1003800081E090E0062E02C0880F991F0A94E2F7E0
:1003900030E08223932302C0959587956A95E2F712
:1003A000982F892F0895843409F43DC0853440F492
:1003B0008234F9F0833450F5813409F040C00CC028
:1003C0008236B9F0833618F48136C9F505C0833614
:1003D000E9F08436A1F527C02BB381E090E0AC01B1
:1003E00002C0440F551F6A95E2F7BA0162276BBB42
:1003F000089528B381E090E0AC0102C0440F551F7E
:100400006A95E2F7BA01622768BB089525B381E0D7
:1004100090E0AC0102C0440F551F6A95E2F7BA01A3
:10042000622765BB089522B381E090E0AC0102C071
:10043000440F551F6A95E2F7BA01622762BB08951F
:100440008434D9F0853438F4823499F0833498F4C4
:100450008134A1F40CC0823661F0833618F4813601
:1004600069F405C0833639F0843641F406C06ABBAE
:10047000089567BB089564BB089561BB08958434F3
:10048000D9F0853438F4823499F0833498F4813487
:10049000A1F40CC0823661F0833618F4813669F419
:1004A00005C0833639F0843641F406C06BBB08952D
:1004B00068BB089565BB089562BB08958434D9F084
:1004C000853438F4823499F0833498F48134A1F47B
:1004D0000CC0823661F0833618F4813669F405C0A9
:1004E000833639F0843641F406C099B305C096B31B
:1004F00003C093B301C090B3892F0895843409F1E8
:10050000853438F48234A9F08334B8F48134E1F4CA
:100510000CC0823671F0833618F48136A9F405C018
:10052000833659F0843681F40CC08BB380958BBB35
:10053000089588B3809588BB089585B3809585BB61
:10054000089582B3809582BB0895843409F471C004
:10055000853448F4823499F1833408F04DC08134F5
:1005600009F083C00FC0823651F1833620F4813602
:1005700009F07BC007C0833609F43EC0843609F019
:1005800074C057C0413069F42BB381E090E0AC01F6
:1005900002C0440F551F6A95E2F7BA01622B6BBB8C
:1005A00008952BB381E090E0AC0102C0440F551FC9
:1005B0006A95E2F7BA01609562236BBB08954130FA
:1005C00069F428B381E090E0AC0102C0440F551FEC
:1005D0006A95E2F7BA01622B68BB089528B381E0FF
:1005E00090E0AC0102C0440F551F6A95E2F7BA01D2
:1005F0006095622368BB0895413069F425B381E0BA
:1006000090E0AC0102C0440F551F6A95E2F7BA01B1
:10061000622B65BB089525B381E090E0AC0102C078
:10062000440F551F6A95E2F7BA016095622365BBD6
:100630000895413069F422B381E090E0AC0102C03A
:10064000440F551F6A95E2F7BA01622B62BB089509
:1006500022B381E090E0AC0102C0440F551F6A95BF
:10066000E2F7BA016095622362BB089583E660E019
:1006700041E00E94490083E661E041E00E944900B8
:1006800083E662E041E00E94490083E663E041E0E6
:100690000E94490083E664E040E00E94490083E64E
:1006A00065E040E00E94490083E666E040E00E9489
:1006B000490083E667E040E00E94490083E664E089
:1006C00041E00E94A50283E665E041E00E94A502A8
:1006D00083E666E041E00E94A50283E667E041E030
:1006E0000E94A50208950F931F93CF93DF93CDB778
:1006F000DEB760970FB6F894DEBF0FBECDBFDE0148
:100700001196E0E6F0E080E101900D928150E1F772
:1007100000E083E660E041E00E94DA0083E661E009
:1007200041E00E94DA0083E662E041E00E94DA00E4
:1007300083E663E041E00E94DA0083E6602F40E058
:100740000E94DA0010E0612F6C5F83E60E946B016B
:10075000882361F4E02FF0E0EE0FFF1FEE0FFF1F84
:10076000E10FF11DEC0FFD1F818104C01F5F1430EC
:1007700051F70BC060960FB6F894DEBF0FBECDBF29
:10078000DF91CF911F910F9108950F5F043009F60B
:100790008FEFF0CF82E460E041E00E94DA008FE961
:1007A0009FE00197F1F700C0000082E460E040E0C4
:1007B0000E94DA008FE99FE00197F1F700C0000086
:1007C0000895682F81E40E943F0282E461E041E0E5
:1007D0000E94DA000E94CA030895682F81E40E94F3
:1007E0003F0282E461E040E00E94DA000E94CA0316
:1007F00008958FEF91EEA4E081509040A040E1F782
:1008000000C0000081E460E041E00E94490081E412
:1008100061E041E00E94490081E462E041E00E9421
:10082000490081E463E041E00E94490081E464E022
:1008300041E00E94490081E465E041E00E944900F6
:1008400081E466E041E00E94490081E467E041E024
:100850000E94490082E460E041E00E94490082E495
:1008600062E041E00E94490082E461E041E00E94D0
:10087000490082E462E040E00E94DA0088E30E94DE
:10088000ED03AFECB7E01197F1F700C000008EE088
:100890000E94ED038FEC97E00197F1F700C0000094
:1008A00081E00E94ED03AFE1BEE41197F1F700C0D3
:1008B000000086E00E94ED038FEC97E00197F1F7CE
:1008C00000C00000089581E00E94ED038FE19EE4E6
:1008D0000197F1F700C000000895282F2150223021
:1008E00070F4613170F4662371F0813019F4962F41
:1008F00091580AC0823041F4962F915405C090E877
:1009000003C090E801C090E8892F0E94ED038FECAE
:1009100097E00197F1F700C000000895CF93DF93AF
:10092000EC018881882331F021960E94E1038991AE
:100930008823D9F7DF91CF9108950F931F93CF9319
:10094000C82F062F462F417060E00E94DA0010E0A9
:10095000A80142705070559547958C2F61E00E9418
:10096000DA00A80144705070559547955595479504
:100970008C2F62E00E94DA0008701070A801559573
:10098000479555954795559547958C2F63E00E945F
:10099000DA00CF911F910F9108950F931F93CF937A
:1009A000C82F062F462F417064E00E94DA0010E045
:1009B000A80142705070559547958C2F65E00E94B4
:1009C000DA00A801447050705595479555954795A4
:1009D0008C2F66E00E94DA0008701070A80155950F
:1009E000479555954795559547958C2F67E00E94FB
:1009F000DA00CF911F910F910895CF93DF930E945A
:100A0000F9030E94360380E790E00E948E040E9462
:100A10006205C1E0D0E080919A0090919B0023E0B4
:100A2000883E920724F0D0939900C09398000E94CA
:100A3000730390E08F3F910589F480919800909125
:100A40009900009741F30E94630482E064E00E94F1
:100A50006D0486E790E00E948E0418C085339105EE
:100A600059F40E94630482E064E00E946D0480E80F
:100A700090E00E948E040AC00E94630482E064E059
:100A80000E946D048AE890E00E948E0480E090E06D
:100A9000DF91CF9108951F920F920FB60F921124FC
:100AA0008F939F9380919A0090919B0001969093D1
:100AB0009B0080939A009F918F910F900FBE0F9093
:100AC0001F90189583B7886083BF80E58CBF83B77C
:100AD000816083BF83B7846083BF789489B7826065
:080AE00089BF0895F894FFCFCF
:100AE8003738392F3435362A3132332D2E303D2BD5
:100AF800332B3F3D380054494D45204F5645520051
:100B080057454C4C20444F4E450057726F6E672036
:080B1800616E73776572000045
:00000001FF
