:100000000C942A000C9447000C9447000C94470071
:100010000C9447000C9447000C9447000C94470044
:100020000C9447000C9447000C9447000C94470034
:100030000C9447000C9447000C9447000C94470024
:100040000C9447000C9447000C9447000C94470014
:100050000C94470011241FBECFE5D8E0DEBFCDBF12
:1000600010E0A0E6B0E0E8EDFCE002C005900D92E3
:10007000A43CB107D9F710E0A4ECB0E001C01D9298
:10008000A43CB107E1F70E9437030C946A060C9474
:100090000000843409F471C0853448F4823499F145
:1000A000833408F04DC0813409F083C00FC082361C
:1000B00051F1833620F4813609F07BC007C08336C6
:1000C00009F43EC0843609F074C057C0413069F469
:1000D0002AB381E090E0AC0102C0440F551F6A953D
:1000E000E2F7BA01622B6ABB08952AB381E090E07F
:1000F000AC0102C0440F551F6A95E2F7BA01609542
:1001000062236ABB0895413069F427B381E090E02F
:10011000AC0102C0440F551F6A95E2F7BA01622B89
:1001200067BB089527B381E090E0AC0102C0440FA3
:10013000551F6A95E2F7BA016095622367BB08957F
:10014000413069F424B381E090E0AC0102C0440F77
:10015000551F6A95E2F7BA01622B64BB089524B378
:1001600081E090E0AC0102C0440F551F6A95E2F7B0
:10017000BA016095622364BB0895413069F421B3EC
:1001800081E090E0AC0102C0440F551F6A95E2F790
:10019000BA01622B61BB089521B381E090E0AC010C
:1001A00002C0440F551F6A95E2F7BA0160956223B9
:1001B00061BB0895843409F471C0853448F48234F5
:1001C00099F1833408F04DC0813409F083C00FC029
:1001D000823651F1833620F4813609F07BC007C0A6
:1001E000833609F43EC0843609F074C057C04130EC
:1001F00069F42BB381E090E0AC0102C0440F551FBD
:100200006A95E2F7BA01622B6BBB08952BB381E0CC
:1002100090E0AC0102C0440F551F6A95E2F7BA01A5
:10022000609562236BBB0895413069F428B381E087
:1002300090E0AC0102C0440F551F6A95E2F7BA0185
:10024000622B68BB089528B381E090E0AC0102C046
:10025000440F551F6A95E2F7BA016095622368BBA7
:100260000895413069F425B381E090E0AC0102C00B
:10027000440F551F6A95E2F7BA01622B65BB0895DA
:1002800025B381E090E0AC0102C0440F551F6A9590
:10029000E2F7BA016095622365BB0895413069F4C5
:1002A00022B381E090E0AC0102C0440F551F6A9573
:1002B000E2F7BA01622B62BB089522B381E090E0BD
:1002C000AC0102C0440F551F6A95E2F7BA01609570
:1002D000622362BB0895843409F451C0853440F42C
:1002E000823439F18334C0F5813409F05AC00EC02C
:1002F0008236F9F0833620F4813609F052C006C008
:10030000833651F1843609F04CC039C029B381E0FD
:1003100090E0062E02C0880F991F0A94E2F730E0A1
:100320008223932302C0959587956A95E2F7982FCB
:1003300038C026B381E090E0062E02C0880F991FD6
:100340000A94E2F730E08223932302C095958795C3
:100350006A95E2F7982F25C023B381E090E0062E3E
:1003600002C0880F991F0A94E2F730E0822393239A
:1003700002C0959587956A95E2F7982F12C020B331
:1003800081E090E0062E02C0880F991F0A94E2F7E0
:1003900030E08223932302C0959587956A95E2F712
:1003A000982F892F0895843409F43DC0853440F492
:1003B0008234F9F0833450F5813409F040C00CC028
:1003C0008236B9F0833618F48136C9F505C0833614
:1003D000E9F08436A1F527C02BB381E090E0AC01B1
:1003E00002C0440F551F6A95E2F7BA0162276BBB42
:1003F000089528B381E090E0AC0102C0440F551F7E
:100400006A95E2F7BA01622768BB089525B381E0D7
:1004100090E0AC0102C0440F551F6A95E2F7BA01A3
:10042000622765BB089522B381E090E0AC0102C071
:10043000440F551F6A95E2F7BA01622762BB08951F
:100440008434D9F0853438F4823499F0833498F4C4
:100450008134A1F40CC0823661F0833618F4813601
:1004600069F405C0833639F0843641F406C06ABBAE
:10047000089567BB089564BB089561BB08958434F3
:10048000D9F0853438F4823499F0833498F4813487
:10049000A1F40CC0823661F0833618F4813669F419
:1004A00005C0833639F0843641F406C06BBB08952D
:1004B00068BB089565BB089562BB08958434E1F07C
:1004C000853438F48234A1F08334A0F48134A9F463
:1004D0000CC0823669F0833618F4813671F405C099
:1004E000833641F0843649F407C090E099BB05C0DB
:1004F00096B303C093B301C090B3892F0895843499
:1005000009F1853438F48234A9F08334B8F48134A5
:10051000E1F40CC0823671F0833618F48136A9F408
:1005200005C0833659F0843681F40CC08BB38095B6
:100530008BBB089588B3809588BB089585B380955B
:1005400085BB089582B3809582BB0895843409F4F5
:1005500071C0853448F4823499F1833408F04DC079
:10056000813409F083C00FC0823651F1833620F404
:10057000813609F07BC007C0833609F43EC084365B
:1005800009F074C057C0413069F42BB381E090E0AA
:10059000AC0102C0440F551F6A95E2F7BA01622B05
:1005A0006BBB08952BB381E090E0AC0102C0440F17
:1005B000551F6A95E2F7BA01609562236BBB0895F7
:1005C000413069F428B381E090E0AC0102C0440FEF
:1005D000551F6A95E2F7BA01622B68BB089528B3EC
:1005E00081E090E0AC0102C0440F551F6A95E2F72C
:1005F000BA016095622368BB0895413069F425B360
:1006000081E090E0AC0102C0440F551F6A95E2F70B
:10061000BA01622B65BB089525B381E090E0AC017F
:1006200002C0440F551F6A95E2F7BA016095622334
:1006300065BB0895413069F422B381E090E0AC01DC
:1006400002C0440F551F6A95E2F7BA01622B62BBE4
:10065000089522B381E090E0AC0102C0440F551F21
:100660006A95E2F7BA016095622362BB08950E9421
:10067000A80480E690E00E94290582E061E00E94E3
:100680007D0481E790E00E94290510E0C0E0D0E001
:100690000F2EF2E88F2EF0E09F2EF02D0F2EF3E9B3
:1006A0006F2EF0E07F2EF02D0F2EF2EAEF2EF0E00D
:1006B000FF2EF02D0F2EFDEACF2EF0E0DF2EF02DD5
:1006C0000F2EF3EBAF2EF0E0BF2EF02D01C0C0E0F7
:1006D00084E660E00E946B01813089F5DD2379F5C5
:1006E000133084F51F5F6BE00E947D04812F805DD5
:1006F0000E940705133061F40E949E04C4010E9409
:10070000290582E061E00E947D04C3010E94290561
:1007100060E070E080E89FE30E9448058FE39DE081
:10072000A3E081509040A040E1F700C0000060E0ED
:1007300070E080EC9FE30E944805D1E003C088236D
:1007400009F4D0E084E661E00E946B018130C1F5DC
:10075000CC2309F0BDCF11160CF0BACF11506BE0CD
:100760000E947D04C12FC05D8C2F0E9407050E944E
:100770009E04C7010E9429058C2F0E940705C6010F
:100780000E94290582E061E00E947D04C5010E946B
:10079000290560E070E080E89FE30E9469058FE32F
:1007A0009DE0A3E081509040A040E1F700C0000030
:1007B00060E070E080EC9FE30E946905C1E088CFB3
:1007C000882309F484CF84CF81E460E041E00E9473
:1007D000DA008FE99FE00197F1F700C0000081E4A3
:1007E00060E040E00E94DA008FE99FE00197F1F7B6
:1007F00000C0000008950F931F93CF93C82F062FBA
:10080000462F417060E00E94DA0010E0A8014270BB
:100810005070559547958C2F61E00E94DA00A80131
:100820004470507055954795559547958C2F62E0CB
:100830000E94DA0008701070A801559547955595EB
:100840004795559547958C2F63E00E94DA00CF912C
:100850001F910F9108950F931F93CF93C82F062FC9
:10086000462F417064E00E94DA0010E0A801427057
:100870005070559547958C2F65E00E94DA00A801CD
:100880004470507055954795559547958C2F66E067
:100890000E94DA0008701070A8015595479555958B
:1008A0004795559547958C2F67E00E94DA00CF91C8
:1008B0001F910F910895CF93C82F682F62956F7085
:1008C00081E40E942B0481E462E040E00E94DA00AF
:1008D0000E94E40381E46C2F0E942B0481E462E017
:1008E00040E00E94DA000E94E4038FEC97E0019759
:1008F000F1F700C00000CF910895282F2150223039
:1009000070F4613170F4662371F0813019F4962F20
:1009100091580AC0823041F4962F915405C090E856
:1009200003C090E801C090E8892F0E945B048FEC1F
:1009300097E00197F1F700C00000089581E00E9460
:100940005B048FE19EE40197F1F700C00000089579
:100950008FEF91EEA4E081509040A040E1F700C0FD
:10096000000081E464E041E00E94490081E465E028
:1009700041E00E94490081E466E041E00E944900B4
:1009800081E467E041E00E94490081E460E041E0E9
:100990000E94490081E461E041E00E94490081E455
:1009A00062E041E00E94490081E461E040E00E9491
:1009B000DA0082E00E945B04AFE1BEE41197F1F738
:1009C00000C0000088E20E945B048FEC97E0019772
:1009D000F1F700C000008EE00E945B04AFECB7E0CE
:1009E0001197F1F700C0000081E00E945B048FE1E5
:1009F0009EE40197F1F700C0000086E00E945B04CE
:100A0000AFECB7E01197F1F700C000000895CF9365
:100A1000C82F682F62956F7081E40E942B0481E4D7
:100A200062E041E00E94DA000E94E40381E46C2F5E
:100A30000E942B0481E462E041E00E94DA000E94FF
:100A4000E4038FEC97E00197F1F700C00000CF912D
:100A50000895CF93DF93EC018881882331F02196AC
:100A60000E94070589918823D9F7DF91CF910895D6
:100A700083B7886083BF80E58CBF83B7816083BF05
:100A800083B7846083BF789489B7826089BF0895F3
:100A90008D9A2FB522602FBD2EB528602EBD2EB5A4
:100AA00020612EBD20E030E04AE754E40E94DF05DB
:100AB0000E948A05DC01CB0199BD88BD8FE19EE4CF
:100AC00097BD86BD8EB581608EBD8FB580628FBDAE
:100AD00008958C9A2FB522602FBD2EB528602EBDAB
:100AE0002EB520612EBD20E030E04AE754E40E949C
:100AF000DF050E948A05DC01CB019BBD8ABD8FE129
:100B00009EE497BD86BD8EB581608EBD8FB5806831
:100B10008FBD089533D088F09F5790F0B92F992753
:100B2000B751A0F0D1F0660F771F881F991F1AF0F8
:100B3000BA95C9F712C0B13081F03AD0B1E008954A
:100B400037C0672F782F8827B85F39F0B93FCCF3CB
:100B5000869577956795B395D9F73EF490958095EE
:100B6000709561957F4F8F4F9F4F089557FD905817
:100B7000440F551F59F05F3F71F04795880F97FB61
:100B8000991F61F09F3F79F087950895121613061B
:100B90001406551FF2CF4695F1DF08C0161617064A
:100BA0001806991FF1CF869571056105089408957F
:100BB000E894BB2766277727CB0197F908950BD0D8
:100BC00078C069D028F06ED018F0952309F05AC08B
:100BD0005FC01124EECFCADFA0F3959FD1F3950F2C
:100BE00050E0551F629FF001729FBB27F00DB11DB1
:100BF000639FAA27F00DB11DAA1F649F6627B00D41
:100C0000A11D661F829F2227B00DA11D621F739F29
:100C1000B00DA11D621F839FA00D611D221F749F37
:100C20003327A00D611D231F849F600D211D822F7E
:100C3000762F6A2F11249F5750408AF0E1F08823C5
:100C40004AF0EE0FFF1FBB1F661F771F881F9150D2
:100C50005040A9F79E3F510570F014C0AACF5F3FE6
:100C6000ECF3983EDCF3869577956795B795F79505
:100C7000E7959F5FC1F7FE2B880F911D969587958D
:100C800097F9089597F99F6780E870E060E008950C
:100C90009FEF80EC089500240A9416161706180694
:100CA0000906089500240A94121613061406050670
:100CB0000895092E0394000C11F4882352F0BB0F01
:100CC00040F4BF2B11F460FF04C06F5F7F4F8F4F64
:080CD0009F4F0895F894FFCF37
:100CD80054686572652061726520302063617273A3
:100CE8000047617261676520686173207370616392
:100CF8006500546865726520617265203320636100
:100D08007273004761726167652069732066756C4C
:100D18006C007468657265206172652000206361EB
:100D28007273006761726167652068617320737010
:040D3800616365008E
:00000001FF
