S010000052656365697665722E73726563DF
S11300000C942A000C9447000C9447000C9447006D
S11300100C9447000C9447000C9447000C94470040
S11300200C9447000C9447000C9447000C94470030
S11300300C9447000C9447000C9447000C94470020
S11300400C9447000C9447000C9447000C94470010
S11300500C94470011241FBECFE5D8E0DEBFCDBF0E
S113006010E0A0E6B0E0E6EEF7E002C005900D92E5
S1130070A036B107D9F710E0A0E6B0E001C01D92A8
S1130080A036B107E1F70E9464030C94F1030C94C9
S11300900000CF93C82F81E060E041E00E9450024D
S11300A080E06C2F0E94160381E061E041E00E9431
S11300B0500283EF91E00197F1F700C0000081E066
S11300C061E040E00E94500283EF91E00197F1F774
S11300D000C00000CF910895CF93C82F81E060E065
S11300E040E00E94500280E06C2F0E94160381E0E1
S11300F061E041E00E94500283EF91E00197F1F743
S113010000C0000081E061E040E00E945002CF9115
S1130110089581E060E041E00E94CE0181E061E069
S113012041E00E94CE0180E06FEF0E94050383ED61
S113013090E30197F1F700C0000088E30E946C008F
S113014089EF90E00197F1F700C000008EE00E9473
S11301506C0089EF90E00197F1F700C0000081E0A6
S11301600E946C0083EF91E00197F1F700C000005A
S113017086E00E946C0083E294EF0197F1F700C0DF
S1130180000008950E94490008950F931F93CF9390
S1130190DF93EC018881882389F08E010F5F1F4F64
S11301A08BE792E90197F1F700C0000089910E9462
S11301B0C200F80181918F01882391F7DF91CF91DB
S11301C01F910F9108950F931F93CF93DF93CDB792
S11301D0DEB72A970FB6F894DEBF0FBECDBF8C01F1
S11301E0009721F480E30E9449002DC099235CF418
S11301F0109501951F4F8DE20E94490001151105CC
S113020011F140E001C040E02AE030E0E1E0F0E03C
S1130210EC0FFD1FE40FF11DC801B9010E94CA03D0
S1130220805D8083062F172F4F5F0115110571F72D
S1130230442349F0042FFE01E00FF11D80810E9448
S113024049000150C1F72A960FB6F894DEBF0FBEDD
S1130250CDBFDF91CF911F910F91089581E00E944E
S11302606C000895603168F4882329F4862F80583F
S11302700E946C000895813021F4862F80540E94DE
S11302806C0008950F931F93CF93DF93C82FD0E092
S11302901C161D0654F400E010E08CE10E946C0072
S11302A00F5F1F4F0C171D07C4F3DF91CF911F91F0
S11302B00F9108951F93CF93DF93CDB7DEB72A979D
S11302C00FB6F894DEBF0FBECDBF882321F480E3C0
S11302D00E94490019C010E0E1E0F0E0EC0FFD1FBE
S11302E0E10FF11D982F9170905D908386951F5FAB
S11302F0882391F7112341F0FE01E10FF11D808164
S11303000E9449001150C1F72A960FB6F894DEBF37
S11303100FBECDBFDF91CF911F9108951F93CF934F
S1130320DF93CDB7DEB72A970FB6F894DEBF0FBEC2
S1130330CDBF882321F480E30E94490025C010E04A
S1130340982F9F709A3048F4E1E0F0E0EC0FFD1F25
S1130350E10FF11D905D908308C0E1E0F0E0EC0F47
S1130360FD1FE10FF11D995C908382958F701F5FD3
S1130370882331F7112341F0FE01E10FF11D808143
S11303800E9449001150C1F72A960FB6F894DEBFB7
S11303900FBECDBFDF91CF911F910895413009F079
S11303A03EC08130A9F0813030F08230F1F08330EA
S11303B009F075C027C02AB381E090E0AC0102C007
S11303C0440F551F6A95E2F7BA01622B6ABB089580
S11303D027B381E090E0AC0102C0440F551F6A9539
S11303E0E2F7BA01622B67BB089524B381E090E081
S11303F0AC0102C0440F551F6A95E2F7BA01622BA3
S113040064BB089521B381E090E0AC0102C0440FC5
S1130410551F6A95E2F7BA01622B61BB08958130DA
S1130420A9F0813028F08230F9F08330C1F52AC078
S11304302AB381E090E0AC0102C0440F551F6A95D5
S1130440E2F7BA01609562236ABB089527B381E09D
S113045090E0AC0102C0440F551F6A95E2F7BA015F
S11304606095622367BB089524B381E090E0AC01FA
S113047002C0440F551F6A95E2F7BA0160956223E2
S113048064BB089521B381E090E0AC0102C0440F45
S1130490551F6A95E2F7BA016095622361BB08951E
S11304A0413009F03EC08130A9F0813030F0823013
S11304B0F1F0833009F075C027C02BB381E090E0E0
S11304C0AC0102C0440F551F6A95E2F7BA01622BD2
S11304D06BBB089528B381E090E0AC0102C0440FE7
S11304E0551F6A95E2F7BA01622B68BB089525B3DC
S11304F081E090E0AC0102C0440F551F6A95E2F719
S1130500BA01622B65BB089522B381E090E0AC018F
S113051002C0440F551F6A95E2F7BA01622B62BB11
S113052008958130A9F0813028F08230F9F08330C9
S1130530C1F52AC02BB381E090E0AC0102C0440FA6
S1130540551F6A95E2F7BA01609562236BBB089563
S113055028B381E090E0AC0102C0440F551F6A95B6
S1130560E2F7BA016095622368BB089525B381E080
S113057090E0AC0102C0440F551F6A95E2F7BA013E
S11305806095622365BB089522B381E090E0AC01DD
S113059002C0440F551F6A95E2F7BA0160956223C1
S11305A062BB0895813089F0813028F08230B9F03F
S11305B0833049F51EC029B330E0C90102C09595C6
S11305C087956A95E2F78170089526B330E0C901F2
S11305D002C0959587956A95E2F78170089523B3D3
S11305E030E0C90102C0959587956A95E2F781705C
S11305F0089520B330E0C90102C0959587956A95A6
S1130600E2F78170089580E00895813049F08130E7
S113061028F0823039F0833041F406C06ABB089573
S113062067BB089564BB089561BB0895813049F0A8
S1130630813028F0823039F0833041F406C06BBB3E
S1130640089568BB089565BB089562BB0895813021
S1130650A1F0813028F08230E9F08330A1F527C081
S11306602BB381E090E0AC0102C0440F551F6A95A2
S1130670E2F7BA0162276BBB089528B381E090E0EA
S1130680AC0102C0440F551F6A95E2F7BA01622714
S113069068BB089525B381E090E0AC0102C0440F2B
S11306A0551F6A95E2F7BA01622765BB089522B324
S11306B081E090E0AC0102C0440F551F6A95E2F757
S11306C0BA01622762BB08950E9487030E948900D1
S11306D08C2F0E94A503C82F0E94C200F9CF81E08D
S11306E064E041E00E94CE0181E065E041E00E94C7
S11306F0CE0181E067E041E00E94CE016C9A6E9ADF
S1130700689A81E064E041E00E94500208956E9A84
S113071081E066E041E00E94CE010895CF93C82FA6
S113072081E064E040E00E945002CFB9779BFECFA5
S11307308FB1CF910895CF93C82F81E064E040E05A
S11307400E945002CFB9CF910895CF93C82F81E072
S113075064E040E00E945002CFB9779BFECF8FB196
S1130760CF910895CF93DF93EC018881882379F0AA
S113077021960E949B038FE59AEEA0E08150904061
S1130780A040E1F700C000008991882391F7DF9130
S1130790CF91089597FB092E07260AD077FD04D040
S11307A00CD006D000201AF4709561957F4F0895FF
S11307B0F6F7909581959F4F0895AA1BBB1B51E1B5
S11307C007C0AA1FBB1FA617B70710F0A61BB70BBD
S11307D0881F991F5A95A9F780959095BC01CD0162
S10907E00895F894FFCF18
S9030000FC
