:100000000C942A000C9447000C9447000C94470071
:100010000C9447000C9447000C9447000C94470044
:100020000C9447000C9447000C9447000C94470034
:100030000C9447000C9447000C9447000C94470024
:100040000C9447000C9447000C9447000C94470014
:100050000C94470011241FBECFE5D8E0DEBFCDBF12
:1000600010E0A0E6B0E0E2E7FCE002C005900D92EF
:10007000AE36B107D9F710E0AEE6B0E001C01D9290
:10008000A137B107E1F70E948B040C9437060C945A
:1000900000003E9A3F9A379A329A319A0895369ADA
:1000A00086B184B190E045B1342F20E0822B932BB0
:1000B0000895843409F471C0853448F4823499F188
:1000C000833408F04DC0813409F083C00FC08236FC
:1000D00051F1833620F4813609F07BC007C08336A6
:1000E00009F43EC0843609F074C057C0413069F449
:1000F0002AB381E090E0AC0102C0440F551F6A951D
:10010000E2F7BA01622B6ABB08952AB381E090E05E
:10011000AC0102C0440F551F6A95E2F7BA01609521
:1001200062236ABB0895413069F427B381E090E00F
:10013000AC0102C0440F551F6A95E2F7BA01622B69
:1001400067BB089527B381E090E0AC0102C0440F83
:10015000551F6A95E2F7BA016095622367BB08955F
:10016000413069F424B381E090E0AC0102C0440F57
:10017000551F6A95E2F7BA01622B64BB089524B358
:1001800081E090E0AC0102C0440F551F6A95E2F790
:10019000BA016095622364BB0895413069F421B3CC
:1001A00081E090E0AC0102C0440F551F6A95E2F770
:1001B000BA01622B61BB089521B381E090E0AC01EC
:1001C00002C0440F551F6A95E2F7BA016095622399
:1001D00061BB0895843409F471C0853448F48234D5
:1001E00099F1833408F04DC0813409F083C00FC009
:1001F000823651F1833620F4813609F07BC007C086
:10020000833609F43EC0843609F074C057C04130CB
:1002100069F42BB381E090E0AC0102C0440F551F9C
:100220006A95E2F7BA01622B6BBB08952BB381E0AC
:1002300090E0AC0102C0440F551F6A95E2F7BA0185
:10024000609562236BBB0895413069F428B381E067
:1002500090E0AC0102C0440F551F6A95E2F7BA0165
:10026000622B68BB089528B381E090E0AC0102C026
:10027000440F551F6A95E2F7BA016095622368BB87
:100280000895413069F425B381E090E0AC0102C0EB
:10029000440F551F6A95E2F7BA01622B65BB0895BA
:1002A00025B381E090E0AC0102C0440F551F6A9570
:1002B000E2F7BA016095622365BB0895413069F4A5
:1002C00022B381E090E0AC0102C0440F551F6A9553
:1002D000E2F7BA01622B62BB089522B381E090E09D
:1002E000AC0102C0440F551F6A95E2F7BA01609550
:1002F000622362BB0895843409F451C0853440F40C
:10030000823439F18334C0F5813409F05AC00EC00B
:100310008236F9F0833620F4813609F052C006C0E7
:10032000833651F1843609F04CC039C029B381E0DD
:1003300090E0062E02C0880F991F0A94E2F730E081
:100340008223932302C0959587956A95E2F7982FAB
:1003500038C026B381E090E0062E02C0880F991FB6
:100360000A94E2F730E08223932302C095958795A3
:100370006A95E2F7982F25C023B381E090E0062E1E
:1003800002C0880F991F0A94E2F730E0822393237A
:1003900002C0959587956A95E2F7982F12C020B311
:1003A00081E090E0062E02C0880F991F0A94E2F7C0
:1003B00030E08223932302C0959587956A95E2F7F2
:1003C000982F892F0895843409F43DC0853440F472
:1003D0008234F9F0833450F5813409F040C00CC008
:1003E0008236B9F0833618F48136C9F505C08336F4
:1003F000E9F08436A1F527C02BB381E090E0AC0191
:1004000002C0440F551F6A95E2F7BA0162276BBB21
:10041000089528B381E090E0AC0102C0440F551F5D
:100420006A95E2F7BA01622768BB089525B381E0B7
:1004300090E0AC0102C0440F551F6A95E2F7BA0183
:10044000622765BB089522B381E090E0AC0102C051
:10045000440F551F6A95E2F7BA01622762BB0895FF
:100460008434D9F0853438F4823499F0833498F4A4
:100470008134A1F40CC0823661F0833618F48136E1
:1004800069F405C0833639F0843641F406C06ABB8E
:10049000089567BB089564BB089561BB08958434D3
:1004A000D9F0853438F4823499F0833498F4813467
:1004B000A1F40CC0823661F0833618F4813669F4F9
:1004C00005C0833639F0843641F406C06BBB08950D
:1004D00068BB089565BB089562BB08958434D9F064
:1004E000853438F4823499F0833498F48134A1F45B
:1004F0000CC0823661F0833618F4813669F405C089
:10050000833639F0843641F406C099B305C096B3FA
:1005100003C093B301C090B3892F0895843409F1C7
:10052000853438F48234A9F08334B8F48134E1F4AA
:100530000CC0823671F0833618F48136A9F405C0F8
:10054000833659F0843681F40CC08BB380958BBB15
:10055000089588B3809588BB089585B3809585BB41
:10056000089582B3809582BB0895843409F471C0E4
:10057000853448F4823499F1833408F04DC08134D5
:1005800009F083C00FC0823651F1833620F48136E2
:1005900009F07BC007C0833609F43EC0843609F0F9
:1005A00074C057C0413069F42BB381E090E0AC01D6
:1005B00002C0440F551F6A95E2F7BA01622B6BBB6C
:1005C00008952BB381E090E0AC0102C0440F551FA9
:1005D0006A95E2F7BA01609562236BBB08954130DA
:1005E00069F428B381E090E0AC0102C0440F551FCC
:1005F0006A95E2F7BA01622B68BB089528B381E0DF
:1006000090E0AC0102C0440F551F6A95E2F7BA01B1
:100610006095622368BB0895413069F425B381E099
:1006200090E0AC0102C0440F551F6A95E2F7BA0191
:10063000622B65BB089525B381E090E0AC0102C058
:10064000440F551F6A95E2F7BA016095622365BBB6
:100650000895413069F422B381E090E0AC0102C01A
:10066000440F551F6A95E2F7BA01622B62BB0895E9
:1006700022B381E090E0AC0102C0440F551F6A959F
:10068000E2F7BA016095622362BB089582E460E0FC
:1006900041E00E94EA008FE99FE00197F1F700C076
:1006A000000082E460E040E00E94EA008FE99FE001
:1006B0000197F1F700C000000895682F84E60E94BA
:1006C0004F0282E461E041E00E94EA000E9446039A
:1006D0000895682F84E60E944F0282E461E040E0C2
:1006E0000E94EA000E94460308958FEF91EEA4E075
:1006F00081509040A040E1F700C0000084E660E037
:1007000041E00E94590084E661E041E00E94590006
:1007100084E662E041E00E94590084E663E041E043
:100720000E94590084E664E041E00E94590084E69A
:1007300065E041E00E94590084E666E041E00E94E5
:10074000590084E667E041E00E94590082E460E0DD
:1007500041E00E94590082E462E041E00E945900B9
:1007600082E461E041E00E94590082E462E040E0FE
:100770000E94EA0088E30E946903AFECB7E011979A
:10078000F1F700C000008CE00E9469038FEC97E055
:100790000197F1F700C0000081E00E946903AFE11A
:1007A000BEE41197F1F700C0000086E00E946903E3
:1007B0008FEC97E00197F1F700C00000089581E009
:1007C0000E9469038FE19EE40197F1F700C00000E9
:1007D0000895282F2150223070F4613170F466237F
:1007E00071F0813019F4962F91580AC0823041F48B
:1007F000962F915405C090E803C090E801C090E89E
:10080000892F0E9469038FEC97E00197F1F700C0F0
:1008100000000895CF93DF93EC018881882331F0A5
:1008200021960E945D0389918823D9F7DF91CF91AA
:1008300008950F931F93CF93C82F062F462F417013
:1008400060E00E94EA0010E0A801427050705595E7
:1008500047958C2F61E00E94EA00A8014470507017
:1008600055954795559547958C2F62E00E94EA0073
:1008700008701070A8015595479555954795559561
:1008800047958C2F63E00E94EA00CF911F910F9152
:1008900008950F931F93CF93C82F062F462F4170B3
:1008A00064E00E94EA0010E0A80142705070559583
:1008B00047958C2F65E00E94EA00A80144705070B3
:1008C00055954795559547958C2F66E00E94EA000F
:1008D00008701070A8015595479555954795559501
:1008E00047958C2F67E00E94EA00CF911F910F91EE
:1008F000089541E00E945900089541E00E94EA00F5
:10090000089540E00E94EA0008950E94E3010895DE
:100910000E947B0108950E9475030E94490082E4B1
:1009200090E067E070E00E94790480E690E00E9429
:100930000A04CAE0D0E00EE610E00E944F00BC01BD
:1009400080E090E00E94320520E030E040E85EE385
:100950000E9498050E940605DC01CB0190936F0070
:1009600080936E008C31910530F082E490E067E076
:1009700070E00E947D0480916E0090916F008B3139
:10098000910530F482E490E067E070E00E94810419
:1009900080916E0090916F008A30910598F481E00B
:1009A0006DE00E94E903F8018081805D0E945D0393
:1009B0008FED0E945D0383E60E945D0380E20E944A
:1009C0005D03BBCF8436910508F0B7CF81E06DE0C1
:1009D0000E94E90380916E0090916F00BE010E9419
:1009E0002306862F805D0E945D0380916E009091AA
:1009F0006F00BE010E942306805D0E945D038FEDA3
:100A00000E945D0383E60E945D0397CF70D088F05B
:100A10009F5790F0B92F9927B751A0F0D1F0660FEA
:100A2000771F881F991F1AF0BA95C9F712C0B13005
:100A300081F077D0B1E0089574C0672F782F8827B0
:100A4000B85F39F0B93FCCF3869577956795B39544
:100A5000D9F73EF490958095709561957F4F8F4FB3
:100A60009F4F0895E89409C097FB3EF490958095B8
:100A7000709561957F4F8F4F9F4F9923A9F0F92F64
:100A800096E9BB279395F695879577956795B795E2
:100A9000F111F8CFFAF4BB0F11F460FF1BC06F5FC8
:100AA0007F4F8F4F9F4F16C0882311F096E911C0DA
:100AB000772321F09EE8872F762F05C0662371F0FB
:100AC00096E8862F70E060E02AF09A95660F771F0F
:100AD000881FDAF7880F9695879597F9089557FD3F
:100AE0009058440F551F59F05F3F71F04795880F9C
:100AF00097FB991F61F09F3F79F087950895121633
:100B000013061406551FF2CF4695F1DF08C01616DE
:100B100017061806991FF1CF86957105610508948F
:100B20000895E894BB2766277727CB0197F90895A6
:100B30000BD078C069D028F06ED018F0952309F05A
:100B40005AC05FC01124EECFCADFA0F3959FD1F346
:100B5000950F50E0551F629FF001729FBB27F00D6B
:100B6000B11D639FAA27F00DB11DAA1F649F6627C0
:100B7000B00DA11D661F829F2227B00DA11D621F0F
:100B8000739FB00DA11D621F839FA00D611D221FC9
:100B9000749F3327A00D611D231F849F600D211DAD
:100BA000822F762F6A2F11249F5750408AF0E1F050
:100BB00088234AF0EE0FFF1FBB1F661F771F881F99
:100BC00091505040A9F79E3F510570F014C0AACF34
:100BD0005F3FECF3983EDCF3869577956795B79584
:100BE000F795E7959F5FC1F7FE2B880F911D9695AE
:100BF000879597F9089597F99F6780E870E060E01E
:100C000008959FEF80EC089500240A9416161706A5
:100C100018060906089500240A94121613061406ED
:100C200005060895092E0394000C11F4882352F050
:100C3000BB0F40F4BF2B11F460FF04C06F5F7F4F08
:100C40008F4F9F4F0895AA1BBB1B51E107C0AA1FDE
:100C5000BB1FA617B70710F0A61BB70B881F991F5D
:100C60005A95A9F780959095BC01CD010895F89407
:020C7000FFCFB4
:0E0C720054656D70657261747572653D0000A9
:00000001FF
