:100000000C942A000C9447000C9447000C94470071
:100010000C9447000C9447000C9447000C94470044
:100020000C9447000C9447000C9447000C94470034
:100030000C9447000C9447000C9447000C94470024
:100040000C9447000C9447000C9447000C94470014
:100050000C94470011241FBECFE5D8E0DEBFCDBF12
:1000600010E0A0E6B0E0EAE9F0E102C005900D92F0
:10007000A637B107D9F710E0A6E7B0E001C01D929E
:10008000A637B107E1F70E9449000C944B080C9485
:100090000000CF93DF9300D000D000D0CDB7DEB703
:1000A0000F2EF0E66F2EF0E07F2EF02D0F2EF6E0F3
:1000B000CF2EF02D0E9420070E945D06DE011196D2
:1000C000F3018C2D01900D928150E1F7DD240F2E6C
:1000D000FAE08F2E9924F02D0F2EF4E62F2E3324E4
:1000E000F02D0F2EF0E34F2E5524F02D0E949A068E
:1000F000E1E0F0E0EC0FFD1FED0DF11D80838F3F7F
:10010000A9F38E3251F08D3341F08B3231F08D32C4
:1001100021F08A3211F08F3219F40E948A07CACF77
:100120000E9408078D2D8F5F2FEF32E547E02150A9
:1001300030404040E1F700C0000001E010E00C0F4B
:100140001D1F080F111D0E949A06D8018C938F3F26
:10015000D1F38E3251F08D3341F08B3231F08D324C
:1001600021F08A3211F08F3219F40E948A07A2CF4F
:100170000E9408078D2D8E5F2FEF32E547E021505A
:1001800030404040E1F700C0000001E010E00C0FFB
:100190001D1F080F111D0E949A06D8018C938F3FD6
:1001A000D1F38E3211F08D3319F40E948A0782CF79
:1001B0000E9408078D2D8D5F2FEF32E547E021501B
:1001C00030404040E1F700C0000001E010E00C0FBB
:1001D0001D1F080F111D0E949A06D8018C938F3F96
:1001E000D1F38E3251F08D3341F08B3231F08D32BC
:1001F00021F08A3211F08F3219F40E948A075ACF07
:100200000E9408078D2D8C5F2FEF32E547E02150CB
:1002100030404040E1F700C0000001E010E00C0F6A
:100220001D1F080F111D0E949A06D8018C938F3F45
:10023000D1F38E3251F08D3341F08B3231F08D326B
:1002400021F08A3211F08F3219F40E948A0732CFDE
:100250000E940807B5E0DB0E2FEF32E547E02150A2
:1002600030404040E1F700C00000ED2CFF2401E0E9
:1002700010E00C0F1D1F0E0D1F1D0E949A06D801C5
:100280008C938F3FD1F38D3309F01DC20E94080774
:10029000EEEFFFEFEC0FFD1FEE0DFF1D80818B32A7
:1002A00069F08C3220F48A3209F010C2F3C08D322A
:1002B00009F478C08F3209F009C290C1EDEFFFEF69
:1002C000EC0FFD1FEE0DFF1D4081ECEFFFEFEC0F7B
:1002D000FD1FEE0DFF1D808190E0880F991F9C018E
:1002E000220F331F220F331F820F931FFC01E40FD5
:1002F000F11DAF01EFEFFFEFEC0FFD1FEE0DFF1D46
:10030000808190E0880F991F9C01220F331F220FDC
:10031000331F820F931FFE01EE0DFF1D2081820F00
:10032000911D840F951F8C0100521440C801845602
:100330009040F3E084389F07C8F4C801B1010E94DF
:100340002408862F805D0E940807C801B4010E941E
:100350002408082FCB01B4010E942408805D0E946C
:100360000807802F805D0E940807B0C1C8010B9765
:100370008935910570F4C801B4010E942408082F42
:10038000862F805D0E940807802F805D0E940807ED
:100390009DC10A30110508F099C1802F805D0E942F
:1003A000080794C1EDEFFFEFEC0FFD1FEE0DFF1DF1
:1003B0004081ECEFFFEFEC0FFD1FEE0DFF1D808184
:1003C00090E0880F991F9C01220F331F220F331FCB
:1003D000820F931FBC01640F711DFE01EE0DFF1D06
:1003E0008081A201481B5109EFEFFFEFEC0FFD1FC9
:1003F000EE0DFF1D808190E0880F991F9C01220F58
:10040000331F220F331F820F931F9A01281B390BB2
:10041000C901860F971F8C0100531040C8018456F4
:10042000904033E084389307C8F4C801B1010E94BA
:100430002408862F805D0E940807C801B4010E942D
:100440002408082FCB01B4010E942408805D0E947B
:100450000807802F805D0E94080738C1C8010B97EC
:100460008935910570F4C801B4010E942408082F51
:10047000862F805D0E940807802F805D0E940807FC
:1004800025C10A30110508F021C1802F805D0E942E
:1004900008071CC1EDEFFFEFEC0FFD1FEE0DFF1D78
:1004A0004081ECEFFFEFEC0FFD1FEE0DFF1D808193
:1004B00090E0880F991F9C01220F331F220F331FDA
:1004C000820F931F840F911DAC0140515240EFEFFA
:1004D000FFEFEC0FFD1FEE0DFF1D808190E0880FF8
:1004E000991F9C01220F331F220F331F820F931F6E
:1004F000FE01EE0DFF1D2081820F911D8051924063
:10050000489F8001499F100D589F100D1124C8016C
:10051000885E934043E28832940720F5C80168EE74
:1005200073E00E942408862F805D0E940807C8019E
:10053000B1010E942408CB01B4010E942408805D0F
:100540000E940807C801B4010E942408E82ECB01CC
:10055000B4010E942408805D0E9408078E2D805DF2
:100560000E940807C8018456904053E084389507DC
:10057000C8F4C801B1010E942408862F805D0E9442
:100580000807C801B4010E942408082FCB01B40158
:100590000E942408805D0E940807802F805D0E94D1
:1005A000080794C0C8010B978935910570F4C801FC
:1005B000B4010E942408082F862F805D0E9408073E
:1005C000802F805D0E94080781C00A30110508F065
:1005D0007DC0802F805D0E94080778C0EDEFFFEF9F
:1005E000EC0FFD1FEE0DFF1D4081ECEFFFEFEC0F58
:1005F000FD1FEE0DFF1D808190E0880F991F9C016B
:10060000220F331F220F331F820F931F840F911D60
:100610009C0120513240EFEFFFEFEC0FFD1FEE0D7C
:10062000FF1D608170E0660F771FCB01880F991F57
:10063000880F991F680F791FFE01EE0DFF1D808145
:10064000680F711D60517240C9010E9438088B010A
:10065000CB0184569040A3E084389A07C8F4CB01BC
:10066000B1010E942408862F805D0E940807C801FE
:10067000B4010E942408082FCB01B4010E94240871
:10068000805D0E940807802F805D0E9408071EC0C1
:10069000CB010B978935910570F4CB01B4010E9411
:1006A0002408082F862F805D0E940807802F805D18
:1006B0000E9408070BC06A30710540F4862F805DE8
:1006C0000E94080703C00E948A07F4CC2FEF31EE86
:1006D00044E0215030404040E1F700C0000006CD2A
:1006E000843409F471C0853448F4823499F1833438
:1006F00008F04DC0813409F083C00FC0823651F13B
:10070000833620F4813609F07BC007C0833609F4B4
:100710003EC0843609F074C057C0413069F42AB332
:1007200081E090E0AC0102C0440F551F6A95E2F7EA
:10073000BA01622B6ABB08952AB381E090E0AC0154
:1007400002C0440F551F6A95E2F7BA016095622313
:100750006ABB0895413069F427B381E090E0AC01B1
:1007600002C0440F551F6A95E2F7BA01622B67BBBE
:10077000089527B381E090E0AC0102C0440F551FFB
:100780006A95E2F7BA016095622367BB089541302C
:1007900069F424B381E090E0AC0102C0440F551F1E
:1007A0006A95E2F7BA01622B64BB089524B381E035
:1007B00090E0AC0102C0440F551F6A95E2F7BA0100
:1007C0006095622364BB0895413069F421B381E0F0
:1007D00090E0AC0102C0440F551F6A95E2F7BA01E0
:1007E000622B61BB089521B381E090E0AC0102C0AF
:1007F000440F551F6A95E2F7BA016095622361BB09
:100800000895843409F471C0853448F4823499F130
:10081000833408F04DC0813409F083C00FC08236A4
:1008200051F1833620F4813609F07BC007C083364E
:1008300009F43EC0843609F074C057C0413069F4F1
:100840002BB381E090E0AC0102C0440F551F6A95C4
:10085000E2F7BA01622B6BBB08952BB381E090E005
:10086000AC0102C0440F551F6A95E2F7BA016095CA
:1008700062236BBB0895413069F428B381E090E0B6
:10088000AC0102C0440F551F6A95E2F7BA01622B12
:1008900068BB089528B381E090E0AC0102C0440F2A
:1008A000551F6A95E2F7BA016095622368BB089507
:1008B000413069F425B381E090E0AC0102C0440FFF
:1008C000551F6A95E2F7BA01622B65BB089525B3FF
:1008D00081E090E0AC0102C0440F551F6A95E2F739
:1008E000BA016095622365BB0895413069F422B373
:1008F00081E090E0AC0102C0440F551F6A95E2F719
:10090000BA01622B62BB089522B381E090E0AC0192
:1009100002C0440F551F6A95E2F7BA016095622341
:1009200062BB0895843409F451C0853440F48234A4
:1009300039F18334C0F5813409F05AC00EC08236D3
:10094000F9F0833620F4813609F052C006C08336B0
:1009500051F1843609F04CC039C029B381E090E0F0
:10096000062E02C0880F991F0A94E2F730E0822316
:10097000932302C0959587956A95E2F7982F38C022
:1009800026B381E090E0062E02C0880F991F0A94DA
:10099000E2F730E08223932302C0959587956A950C
:1009A000E2F7982F25C023B381E090E0062E02C025
:1009B000880F991F0A94E2F730E08223932302C044
:1009C000959587956A95E2F7982F12C020B381E03C
:1009D00090E0062E02C0880F991F0A94E2F730E0DB
:1009E0008223932302C0959587956A95E2F7982F05
:1009F000892F0895843409F43DC0853440F482344D
:100A0000F9F0833450F5813409F040C00CC08236CF
:100A1000B9F0833618F48136C9F505C08336E9F09C
:100A20008436A1F527C02BB381E090E0AC0102C071
:100A3000440F551F6A95E2F7BA0162276BBB089510
:100A400028B381E090E0AC0102C0440F551F6A95C5
:100A5000E2F7BA01622768BB089525B381E090E010
:100A6000AC0102C0440F551F6A95E2F7BA01622734
:100A700065BB089522B381E090E0AC0102C0440F51
:100A8000551F6A95E2F7BA01622762BB0895843464
:100A9000D9F0853438F4823499F0833498F4813471
:100AA000A1F40CC0823661F0833618F4813669F403
:100AB00005C0833639F0843641F406C06ABB089518
:100AC00067BB089564BB089561BB08958434D9F071
:100AD000853438F4823499F0833498F48134A1F465
:100AE0000CC0823661F0833618F4813669F405C093
:100AF000833639F0843641F406C06BBB089568BB79
:100B0000089565BB089562BB08958434D9F0853497
:100B100038F4823499F0833498F48134A1F40CC011
:100B2000823661F0833618F4813669F405C0833665
:100B300039F0843641F406C099B305C096B303C0BA
:100B400093B301C090B3892F0895843409F185349B
:100B500038F48234A9F08334B8F48134E1F40CC061
:100B6000823671F0833618F48136A9F405C08336D5
:100B700059F0843681F40CC08BB380958BBB0895FB
:100B800088B3809588BB089585B3809585BB08950B
:100B900082B3809582BB0895843409F471C0853492
:100BA00048F4823499F1833408F04DC0813409F05F
:100BB00083C00FC0823651F1833620F4813609F0AC
:100BC0007BC007C0833609F43EC0843609F074C088
:100BD00057C0413069F42BB381E090E0AC0102C012
:100BE000440F551F6A95E2F7BA01622B6BBB08955B
:100BF0002BB381E090E0AC0102C0440F551F6A9511
:100C0000E2F7BA01609562236BBB0895413069F445
:100C100028B381E090E0AC0102C0440F551F6A95F3
:100C2000E2F7BA01622B68BB089528B381E090E037
:100C3000AC0102C0440F551F6A95E2F7BA016095F6
:100C4000622368BB0895413069F425B381E090E0E8
:100C5000AC0102C0440F551F6A95E2F7BA01622B3E
:100C600065BB089525B381E090E0AC0102C0440F5C
:100C7000551F6A95E2F7BA016095622365BB089536
:100C8000413069F422B381E090E0AC0102C0440F2E
:100C9000551F6A95E2F7BA01622B62BB089522B331
:100CA00081E090E0AC0102C0440F551F6A95E2F765
:100CB000BA016095622362BB089583E660E041E07B
:100CC0000E94700383E661E041E00E94700383E6C6
:100CD00062E041E00E94700383E663E041E00E942D
:100CE000700383E664E040E00E94700383E665E001
:100CF00040E00E94700383E666E040E00E947003DB
:100D000083E667E040E00E94700383E664E041E030
:100D10000E94CC0583E665E041E00E94CC0583E6B5
:100D200066E041E00E94CC0583E667E041E00E9476
:100D3000CC0508950F931F93CF93DF93CDB7DEB704
:100D400060970FB6F894DEBF0FBECDBFDE011196DF
:100D5000E6E6F0E080E101900D928150E1F700E0DD
:100D600083E660E041E00E94010483E661E041E047
:100D70000E94010483E662E041E00E94010483E6F0
:100D800063E041E00E94010483E6602F40E00E949E
:100D9000010410E0612F6C5F83E60E9492048823B7
:100DA00061F4E02FF0E0EE0FFF1FEE0FFF1FE10FE9
:100DB000F11DEC0FFD1F818104C01F5F143051F73E
:100DC0000BC060960FB6F894DEBF0FBECDBFDF91AB
:100DD000CF911F910F9108950F5F043009F68FEFA7
:100DE000F0CF82E460E041E00E9401048FE99FE0DF
:100DF0000197F1F700C0000082E460E040E00E944B
:100E000001048FE99FE00197F1F700C00000089509
:100E1000682F81E40E94660582E461E041E00E945F
:100E200001040E94F1060895682F81E40E9466057E
:100E300082E461E040E00E9401040E94F10608950E
:100E40008FEF91EEA4E081509040A040E1F700C008
:100E5000000081E460E041E00E94700381E461E011
:100E600041E00E94700381E462E041E00E9470036F
:100E700081E463E041E00E94700381E464E041E0CA
:100E80000E94700381E465E041E00E94700381E408
:100E900066E041E00E94700381E467E041E00E9467
:100EA000700382E460E041E00E94700382E462E04B
:100EB00041E00E94700382E461E041E00E9470031F
:100EC00082E462E040E00E94010488E30E9414078B
:100ED000AFECB7E01197F1F700C000008EE00E9480
:100EE00014078FEC97E00197F1F700C0000081E054
:100EF0000E941407AFE1BEE41197F1F700C00000B3
:100F000086E00E9414078FEC97E00197F1F700C08C
:100F10000000089581E00E9414078FE19EE401978C
:100F2000F1F700C000000895282F2150223070F4FE
:100F3000613170F4662371F0813019F4962F915865
:100F40000AC0823041F4962F915405C090E803C046
:100F500090E801C090E8892F0E9414078FEC97E079
:100F60000197F1F700C000000895CF93DF93EC01E3
:100F70008881882331F021960E940807899188236F
:100F8000D9F7DF91CF9108950F931F93CF93C82F77
:100F9000062F462F417060E00E94010410E0A80176
:100FA00042705070559547958C2F61E00E94010466
:100FB000A8014470507055954795559547958C2FCD
:100FC00062E00E94010408701070A80155954795D1
:100FD00055954795559547958C2F63E00E940104E0
:100FE000CF911F910F9108950F931F93CF93C82F07
:100FF000062F462F417064E00E94010410E0A80112
:1010000042705070559547958C2F65E00E94010401
:10101000A8014470507055954795559547958C2F6C
:1010200066E00E94010408701070A801559547956C
:1010300055954795559547958C2F67E00E9401047B
:10104000CF911F910F910895AA1BBB1B51E107C0BF
:10105000AA1FBB1FA617B70710F0A61BB70B881F48
:10106000991F5A95A9F780959095BC01CD010895D7
:1010700097FB092E07260AD077FD04D0E5DF06D0BE
:1010800000201AF4709561957F4F0895F6F79095BA
:0A10900081959F4F0895F894FFCF5B
:10109A00FFFFFFFFFFFF3132332B3435362D373850
:0610AA00392A2E303D2F13
:00000001FF
