:100000000C942A000C9447000C9447000C94470071
:100010000C9447000C9447000C9447000C94470044
:100020000C9447000C9447000C9447000C94470034
:100030000C9447000C9447000C9447000C94470024
:100040000C9447000C9447000C9447000C94470014
:100050000C94470011241FBECFE5D8E0DEBFCDBF12
:1000600010E0A0E6B0E0E0E6F9E002C005900D92F5
:10007000A637B107D9F710E0A6E7B0E001C01D929E
:10008000A637B107E1F70E9436030C94AE040C9436
:100090000000843409F471C0853448F4823499F145
:1000A000833408F04DC0813409F083C00FC082361C
:1000B00051F1833620F4813609F07BC007C08336C6
:1000C00009F43EC0843609F074C057C0413069F469
:1000D0002AB381E090E0AC0102C0440F551F6A953D
:1000E000E2F7BA01622B6ABB08952AB381E090E07F
:1000F000AC0102C0440F551F6A95E2F7BA01609542
:1001000062236ABB0895413069F427B381E090E02F
:10011000AC0102C0440F551F6A95E2F7BA01622B89
:1001200067BB089527B381E090E0AC0102C0440FA3
:10013000551F6A95E2F7BA016095622367BB08957F
:10014000413069F424B381E090E0AC0102C0440F77
:10015000551F6A95E2F7BA01622B64BB089524B378
:1001600081E090E0AC0102C0440F551F6A95E2F7B0
:10017000BA016095622364BB0895413069F421B3EC
:1001800081E090E0AC0102C0440F551F6A95E2F790
:10019000BA01622B61BB089521B381E090E0AC010C
:1001A00002C0440F551F6A95E2F7BA0160956223B9
:1001B00061BB0895843409F471C0853448F48234F5
:1001C00099F1833408F04DC0813409F083C00FC029
:1001D000823651F1833620F4813609F07BC007C0A6
:1001E000833609F43EC0843609F074C057C04130EC
:1001F00069F42BB381E090E0AC0102C0440F551FBD
:100200006A95E2F7BA01622B6BBB08952BB381E0CC
:1002100090E0AC0102C0440F551F6A95E2F7BA01A5
:10022000609562236BBB0895413069F428B381E087
:1002300090E0AC0102C0440F551F6A95E2F7BA0185
:10024000622B68BB089528B381E090E0AC0102C046
:10025000440F551F6A95E2F7BA016095622368BBA7
:100260000895413069F425B381E090E0AC0102C00B
:10027000440F551F6A95E2F7BA01622B65BB0895DA
:1002800025B381E090E0AC0102C0440F551F6A9590
:10029000E2F7BA016095622365BB0895413069F4C5
:1002A00022B381E090E0AC0102C0440F551F6A9573
:1002B000E2F7BA01622B62BB089522B381E090E0BD
:1002C000AC0102C0440F551F6A95E2F7BA01609570
:1002D000622362BB0895843409F451C0853440F42C
:1002E000823439F18334C0F5813409F05AC00EC02C
:1002F0008236F9F0833620F4813609F052C006C008
:10030000833651F1843609F04CC039C029B381E0FD
:1003100090E0062E02C0880F991F0A94E2F730E0A1
:100320008223932302C0959587956A95E2F7982FCB
:1003300038C026B381E090E0062E02C0880F991FD6
:100340000A94E2F730E08223932302C095958795C3
:100350006A95E2F7982F25C023B381E090E0062E3E
:1003600002C0880F991F0A94E2F730E0822393239A
:1003700002C0959587956A95E2F7982F12C020B331
:1003800081E090E0062E02C0880F991F0A94E2F7E0
:1003900030E08223932302C0959587956A95E2F712
:1003A000982F892F0895843409F43DC0853440F492
:1003B0008234F9F0833450F5813409F040C00CC028
:1003C0008236B9F0833618F48136C9F505C0833614
:1003D000E9F08436A1F527C02BB381E090E0AC01B1
:1003E00002C0440F551F6A95E2F7BA0162276BBB42
:1003F000089528B381E090E0AC0102C0440F551F7E
:100400006A95E2F7BA01622768BB089525B381E0D7
:1004100090E0AC0102C0440F551F6A95E2F7BA01A3
:10042000622765BB089522B381E090E0AC0102C071
:10043000440F551F6A95E2F7BA01622762BB08951F
:100440008434D9F0853438F4823499F0833498F4C4
:100450008134A1F40CC0823661F0833618F4813601
:1004600069F405C0833639F0843641F406C06ABBAE
:10047000089567BB089564BB089561BB08958434F3
:10048000D9F0853438F4823499F0833498F4813487
:10049000A1F40CC0823661F0833618F4813669F419
:1004A00005C0833639F0843641F406C06BBB08952D
:1004B00068BB089565BB089562BB08958434D9F084
:1004C000853438F4823499F0833498F48134A1F47B
:1004D0000CC0823661F0833618F4813669F405C0A9
:1004E000833639F0843641F406C099B305C096B31B
:1004F00003C093B301C090B3892F0895843409F1E8
:10050000853438F48234A9F08334B8F48134E1F4CA
:100510000CC0823671F0833618F48136A9F405C018
:10052000833659F0843681F40CC08BB380958BBB35
:10053000089588B3809588BB089585B3809585BB61
:10054000089582B3809582BB0895843409F471C004
:10055000853448F4823499F1833408F04DC08134F5
:1005600009F083C00FC0823651F1833620F4813602
:1005700009F07BC007C0833609F43EC0843609F019
:1005800074C057C0413069F42BB381E090E0AC01F6
:1005900002C0440F551F6A95E2F7BA01622B6BBB8C
:1005A00008952BB381E090E0AC0102C0440F551FC9
:1005B0006A95E2F7BA01609562236BBB08954130FA
:1005C00069F428B381E090E0AC0102C0440F551FEC
:1005D0006A95E2F7BA01622B68BB089528B381E0FF
:1005E00090E0AC0102C0440F551F6A95E2F7BA01D2
:1005F0006095622368BB0895413069F425B381E0BA
:1006000090E0AC0102C0440F551F6A95E2F7BA01B1
:10061000622B65BB089525B381E090E0AC0102C078
:10062000440F551F6A95E2F7BA016095622365BBD6
:100630000895413069F422B381E090E0AC0102C03A
:10064000440F551F6A95E2F7BA01622B62BB089509
:1006500022B381E090E0AC0102C0440F551F6A95BF
:10066000E2F7BA016095622362BB08950E941E04FE
:1006700080E690E00E949F048FEF94E3ACE081500D
:100680009040A040E1F700C0000082E061E00E94DD
:10069000F3038CE690E00E949F048CE10E94D1035A
:1006A0008FEF99E6A8E181509040A040E1F700C0AB
:1006B0000000F3CF82E460E041E00E94DA008FE9BD
:1006C0009FE00197F1F700C0000082E460E040E0A5
:1006D0000E94DA008FE99FE00197F1F700C0000067
:1006E00008950F931F93CF93C82F062F462F417065
:1006F00060E00E94DA0010E0A80142705070559549
:1007000047958C2F61E00E94DA00A8014470507078
:1007100055954795559547958C2F62E00E94DA00D4
:1007200008701070A80155954795559547955595B2
:1007300047958C2F63E00E94DA00CF911F910F91B3
:1007400008950F931F93CF93C82F062F462F417004
:1007500064E00E94DA0010E0A801427050705595E4
:1007600047958C2F65E00E94DA00A8014470507014
:1007700055954795559547958C2F66E00E94DA0070
:1007800008701070A8015595479555954795559552
:1007900047958C2F67E00E94DA00CF911F910F914F
:1007A0000895CF93C82F682F62956F7081E40E94DF
:1007B000A10382E461E040E00E94DA000E945A0353
:1007C00081E46C2F0E94A10382E461E040E00E947A
:1007D000DA000E945A038FEC97E00197F1F700C00E
:1007E0000000CF910895282F2150223070F46131FC
:1007F00070F4662371F0813019F4962F91580AC075
:10080000823041F4962F915405C090E803C090E8DF
:1008100001C090E8892F0E94D1038FEC97E00197E7
:10082000F1F700C00000089581E00E94D1038FE13C
:100830009EE40197F1F700C0000008958FEF91EE5C
:10084000A4E081509040A040E1F700C0000081E4A6
:1008500064E041E00E94490081E465E041E00E94DB
:10086000490081E466E041E00E94490081E467E0DC
:1008700041E00E94490082E460E041E00E944900BA
:1008800082E462E041E00E94490082E461E041E0EC
:100890000E94490082E462E040E00E94DA0082E0C7
:1008A0000E94D103AFE1BEE41197F1F700C0000050
:1008B00088E20E94D1038FEC97E00197F1F700C026
:1008C00000008EE00E94D103AFECB7E01197F1F782
:1008D00000C0000081E00E94D1038FE19EE40197F7
:1008E000F1F700C0000086E00E94D103AFECB7E052
:1008F0001197F1F700C000000895CF93C82F682F1B
:1009000062956F7081E40E94A10382E461E041E09E
:100910000E94DA000E945A0381E46C2F0E94A10316
:1009200082E461E041E00E94DA000E945A038FEC09
:1009300097E00197F1F700C00000CF910895CF93A1
:10094000DF93EC018881882331F021960E947D0499
:1009500089918823D9F7DF91CF910895F894FFCF3B
:10096000616264656C7261686D616E006D61746175
:06097000726177790000BE
:00000001FF
