:100000000C942A000C9447000C9447000C94470071
:100010000C9447000C9447000C9447000C94470044
:100020000C9447000C9447000C9447000C94470034
:100030000C9447000C9447000C9447000C94470024
:100040000C9447000C9447000C9447000C94470014
:100050000C94470011241FBECFE5D8E0DEBFCDBF12
:1000600010E0A0E6B0E0E6ECF0E002C005900D92F2
:10007000A036B107D9F710E0A0E6B0E001C01D92AC
:10008000A036B107E1F70E9449000C9461000C947E
:10009000000081E081BB8FE082BB2FEF39E648E1B1
:1000A000215030404040E1F700C0000012BA2FEF6D
:1000B00039E648E1215030404040E1F700C00000FF
:0600C000EBCFF894FFCF26
:00000001FF
