:100000000C942A000C9447000C9447000C94470071
:100010000C9447000C9447000C9447000C94470044
:100020000C9447000C9447000C9447000C94470034
:100030000C9447000C9447000C9447000C94470024
:100040000C9447000C9447000C9447000C94470014
:100050000C94470011241FBECFE5D8E0DEBFCDBF12
:1000600010E0A0E6B0E0ECEEF6E002C005900D92E4
:10007000AA36B107D9F710E0AAE6B0E001C01D9298
:10008000AA36B107E1F70E9449000C9474030C945E
:10009000000081E60E946000C0E0D0E081E66C2FA5
:1000A0000E9464008FEF99E6A8E181509040A04043
:1000B000E1F700C00000CF5FCA3080F3CD2FEECF54
:1000C0006FEF0E945D020895CF93DF93CDB7DEB747
:1000D0002A970FB6F894DEBF0FBECDBFDE01119692
:1000E000E0E6F0E09AE001900D929150E1F7FE0118
:1000F000E60FF11D61810E947C022A960FB6F894EA
:10010000DEBF0FBECDBFDF91CF910895843409F4D7
:1001100071C0853448F4823499F1833408F04DC0BD
:10012000813409F083C00FC0823651F1833620F448
:10013000813609F07BC007C0833609F43EC084369F
:1001400009F074C057C0413069F42AB381E090E0EF
:10015000AC0102C0440F551F6A95E2F7BA01622B49
:100160006ABB08952AB381E090E0AC0102C0440F5D
:10017000551F6A95E2F7BA01609562236ABB08953C
:10018000413069F427B381E090E0AC0102C0440F34
:10019000551F6A95E2F7BA01622B67BB089527B332
:1001A00081E090E0AC0102C0440F551F6A95E2F770
:1001B000BA016095622367BB0895413069F424B3A6
:1001C00081E090E0AC0102C0440F551F6A95E2F750
:1001D000BA01622B64BB089524B381E090E0AC01C6
:1001E00002C0440F551F6A95E2F7BA016095622379
:1001F00064BB0895413069F421B381E090E0AC0123
:1002000002C0440F551F6A95E2F7BA01622B61BB29
:10021000089521B381E090E0AC0102C0440F551F66
:100220006A95E2F7BA016095622361BB0895843450
:1002300009F471C0853448F4823499F1833408F0AC
:100240004DC0813409F083C00FC0823651F183362E
:1002500020F4813609F07BC007C0833609F43EC024
:10026000843609F074C057C0413069F42BB381E083
:1002700090E0AC0102C0440F551F6A95E2F7BA0145
:10028000622B6BBB08952BB381E090E0AC0102C000
:10029000440F551F6A95E2F7BA01609562236BBB64
:1002A0000895413069F428B381E090E0AC0102C0C8
:1002B000440F551F6A95E2F7BA01622B68BB089597
:1002C00028B381E090E0AC0102C0440F551F6A954D
:1002D000E2F7BA016095622368BB0895413069F482
:1002E00025B381E090E0AC0102C0440F551F6A9530
:1002F000E2F7BA01622B65BB089525B381E090E077
:10030000AC0102C0440F551F6A95E2F7BA0160952F
:10031000622365BB0895413069F422B381E090E027
:10032000AC0102C0440F551F6A95E2F7BA01622B77
:1003300062BB089522B381E090E0AC0102C0440F9B
:10034000551F6A95E2F7BA016095622362BB089572
:10035000843409F451C0853440F4823439F1833453
:10036000C0F5813409F05AC00EC08236F9F08336E8
:1003700020F4813609F052C006C0833651F184362C
:1003800009F04CC039C029B381E090E0062E02C0CC
:10039000880F991F0A94E2F730E08223932302C06A
:1003A000959587956A95E2F7982F38C026B381E036
:1003B00090E0062E02C0880F991F0A94E2F730E001
:1003C0008223932302C0959587956A95E2F7982F2B
:1003D00025C023B381E090E0062E02C0880F991F4C
:1003E0000A94E2F730E08223932302C09595879523
:1003F0006A95E2F7982F12C020B381E090E0062EB4
:1004000002C0880F991F0A94E2F730E082239323F9
:1004100002C0959587956A95E2F7982F892F0895E0
:10042000843409F43DC0853440F48234F9F08334D7
:1004300050F5813409F040C00CC08236B9F08336E3
:1004400018F48136C9F505C08336E9F08436A1F584
:1004500027C02BB381E090E0AC0102C0440F551FD0
:100460006A95E2F7BA0162276BBB089528B381E071
:1004700090E0AC0102C0440F551F6A95E2F7BA0143
:10048000622768BB089525B381E090E0AC0102C00B
:10049000440F551F6A95E2F7BA01622765BB0895BC
:1004A00022B381E090E0AC0102C0440F551F6A9571
:1004B000E2F7BA01622762BB08958434D9F085342B
:1004C00038F4823499F0833498F48134A1F40CC068
:1004D000823661F0833618F4813669F405C08336BC
:1004E00039F0843641F406C06ABB089567BB0895AD
:1004F00064BB089561BB08958434D9F0853438F421
:10050000823499F0833498F48134A1F40CC082369B
:1005100061F0833618F4813669F405C0833639F00A
:10052000843641F406C06BBB089568BB089565BB73
:10053000089562BB08958434E1F0853438F4823440
:10054000A1F08334A0F48134A9F40CC0823669F0A0
:10055000833618F4813671F405C0833641F0843651
:1005600049F407C090E099BB05C096B303C093B3AC
:1005700001C090B3892F0895843409F1853438F48B
:100580008234A9F08334B8F48134E1F40CC08236AB
:1005900071F0833618F48136A9F405C0833659F01A
:1005A000843681F40CC08BB380958BBB089588B3DF
:1005B000809588BB089585B3809585BB089582B3E7
:1005C000809582BB0895843409F471C0853448F461
:1005D000823499F1833408F04DC0813409F083C02E
:1005E0000FC0823651F1833620F4813609F07BC08A
:1005F00007C0833609F43EC0843609F074C057C082
:10060000413069F42BB381E090E0AC0102C0440FAB
:10061000551F6A95E2F7BA01622B6BBB08952BB3A5
:1006200081E090E0AC0102C0440F551F6A95E2F7EB
:10063000BA01609562236BBB0895413069F428B319
:1006400081E090E0AC0102C0440F551F6A95E2F7CB
:10065000BA01622B68BB089528B381E090E0AC0139
:1006600002C0440F551F6A95E2F7BA0160956223F4
:1006700068BB0895413069F425B381E090E0AC0196
:1006800002C0440F551F6A95E2F7BA01622B65BBA1
:10069000089525B381E090E0AC0102C0440F551FDE
:1006A0006A95E2F7BA016095622365BB089541300F
:1006B00069F422B381E090E0AC0102C0440F551F01
:1006C0006A95E2F7BA01622B62BB089522B381E01A
:1006D00090E0AC0102C0440F551F6A95E2F7BA01E1
:0C06E0006095622362BB0895F894FFCF80
:0A06EC003F065B4F666D7D477F6F90
:00000001FF
